:1000000073C00000A2C00000A0C000009EC000009D
:100010009CC000009AC0000098C0000096C000007C
:1000200094C0000092C0000090C000008EC000008C
:100030008CC000008AC0000088C0000086C000009C
:1000400084C0000082C0000080C000007EC00000AC
:100050007CC000007AC0000078C000000C94FD084D
:1000600074C000000C94C8080C949F086EC0000077
:100070006CC000006AC0000068C0000066C00000DC
:1000800064C0000062C0000060C000005EC00000EC
:100090000C9476080C944D0858C00000A9C40000C8
:1000A00054C0000052C0000050C000004EC000000C
:1000B0004CC000004AC0000048C0000046C000001C
:1000C00044C0000042C0000040C000003EC000002C
:1000D0003CC000003AC00000B7C700008CC7000059
:1000E00034C00000D40E350C11241FBECFEFD1E276
:1000F000DEBFCDBF00E00CBF12E0A0E0B2E0E6E062
:10010000FBE200E00BBF02C007900D92A837B107D9
:10011000D9F725E0A8E7B2E001C01D92AF3BB207D6
:10012000E1F710E0C3E7D0E000E006C02197010945
:10013000802FFE010E944513C237D10780E00807D7
:10014000A9F70E943B0C0C9472155ACF85ED809351
:10015000BC008091BC0084FDFCCF1092C1020895C8
:1001600040919B02262F30E0240F311D21323105B2
:10017000DCF42091C1022430C9F4FC0180E090E05D
:10018000861758F430919B022191DC01A758BD4F8E
:10019000A30FB11D2C930196F3CF80919B02680FA2
:1001A00060939B0280E0089581E0089582E00895C5
:1001B00008958FEF9FEF08958FEF9FEF089580913F
:1001C000780290E09195819591090895CF93DF93FE
:1001D0001F921F92CDB7DEB7CB01642F49835A839C
:1001E000BFDF4981842F5A81952F0F900F90DF91A7
:1001F000CF910895CF93DF931F92CDB7DEB7698378
:1002000061E0CE010196ACDF81E090E00F90DF91DC
:10021000CF910895089580E090E008954F925F9205
:100220006F927F928F929F92AF92BF92DF92EF92E6
:10023000FF920F931F93CF93DF93CDB7DEB7A497B1
:100240000FB6F894DEBF0FBECDBF8E010C5D1F4F01
:1002500080EF92E0A8D505970CF4B4C19E01215E11
:100260003F4F79015901BDD76093F8027093F902AD
:100270008093FA029093FB02E091F002F091F10278
:100280000284F385E02D80EF92E0199597FD18C068
:10029000F50181935F01E017F10729F73F8D28A150
:1002A000832F820FD9A08D0D4AA1840F9BA1890FA6
:1002B00009F43FC06AE272E08DE893E087D61EC081
:1002C00090D74090F8025090F9026090FA02709036
:1002D000FB02DC01CB0184199509A609B7094090FE
:1002E000F4025090F5026090F6027090F7028415C7
:1002F0009505A605B70508F4BFCFD0CFF7016191EA
:100300007F01E0918D03F0918E030190F081E02D4B
:100310008DE893E019956CE472E08DE893E056D691
:10032000E016F10659F76DE572E08DE893E04ED6E0
:100330008FCF313009F08CCF263094F421300CF07F
:1003400087CF2111E6C0E0914705F0914805108262
:10035000118212821382148215821682178278CF3C
:10036000263021F0273009F4AAC0D3C0E090470519
:10037000F09048056D2DDD0C770B880B990B4B0128
:100380005C01F4E68F0E911CA11CB11C29EC8216B5
:100390009104A104B10408F05BCF24E6240F293CAA
:1003A00008F056CFF701608371838283938364835F
:1003B0007583868397834C3971F49B01AC01882740
:1003C0009927DC01821B930BA40BB50B80839183CF
:1003D000A283B3833DCF842E042E000C9908AA0873
:1003E000BB0824013501F3E64F0E511C611C711C42
:1003F00023E6421651046104710410F50E94F210C4
:100400002B013C01C501B4010E94F21020E030E054
:1004100048EC52E40E94AC1220E030E040E85FE398
:100420000E9448129B01AC01C301B2010E942D1130
:100430000E941413F701608371838283938308CF32
:1004400024013501F1E04F1A51086108710823E6D3
:10045000421651046104710420F50E94F2102B0130
:100460003C01C501B4010E94F21020E030E048ECEC
:1004700052E40E94AC129B01AC0160E070E080E8A5
:100480009FE30E9447129B01AC01C301B2010E948D
:100490002D110E941413F70164837583868397835B
:1004A000D7CE443609F0D4CE9B01AC0188279927DA
:1004B000DC01821B930BA40BB50BF70125C0E09167
:1004C0004705F09148058D2DDD0C990BAA0BBB0B50
:1004D0004C015D0124E6820E911CA11CB11C39EC7B
:1004E00083169104A104B10408F0B2CE24E6240FCF
:1004F000293C08F0ADCE80839183A283B383842FFF
:10050000440F990BAA0BBB0B84839583A683B783F7
:100510009FCE642FCE0149962CA30E94F90B6D2D1E
:10052000CE0143960E94F90B2CA1622FCE010D96AD
:100530000E94F90B61E0CE0107960E94F90B6AE375
:1005400072E0CE01019609D5BE01695F7F4FCE01F1
:1005500001960E94C50B0E94A30BBE01635F7F4FF3
:100560000E94C50B0E94A30BBE016D5E7F4F0E94CF
:10057000C50B0E94A30BBE01675E7F4F0E94C50B97
:10058000FC0144815581608171818DE893E096D3AF
:100590006DE572E08DE893E019D5CE0101960E94D9
:1005A000F50BCE0107960E94F50BCE010D960E9429
:1005B000F50BCE0143960E94F50BCE0149960E94A1
:1005C000F50B46CEA4960FB6F894DEBF0FBECDBF96
:1005D000DF91CF911F910F91FF90EF90DF90BF902F
:1005E000AF909F908F907F906F905F904F90089505
:1005F0002F923F924F925F926F927F928F929F9233
:10060000AF92BF92CF92DF92EF92FF920F931F9320
:10061000CF93DF93CDB7DEB7C954D1090FB6F894A5
:10062000DEBF0FBECDBF4C011B0126964FAF2697F4
:10063000590123961FAF0EAF2397DB0114964D90FF
:100640005D906D907C901797CCD56B017C0177FC09
:1006500007C0C7D56B017C01C418D508E608F708A8
:10066000F501E0612596FFAFEEAF25972396EEAD3D
:10067000FFAD239784819581A681B781B7FD2DC0F9
:10068000B0D52396AEADBFAD23970D911D912D91A1
:100690003C91DC01CB01801B910BA20BB30B239689
:1006A000EEADFFAD23970481158126813781801738
:1006B0009107A207B30788F0C401E9D581E0D4010E
:1006C0008C9312968C938EEF9FEFAFEFBFEFF401F8
:1006D00086839783A087B18770C177FC47C081D597
:1006E000DC01CB018C199D09AE09BF098415950564
:1006F000A605B705D8F175D56B017C01D1011C9613
:100700008C918F5F87FD8EC0D1011C968C931C97B6
:1007100012969C919DA32496BFAD2497BEA38FA350
:1007200084E090E09CA38BA32696EFAD2697E8A7E4
:10073000D101ED91FC911197A3A0B4A004E010E0C9
:100740009E012B5D3F4F43E250E013966C91CE012A
:100750000196BDD5D501ED91FC910280F381E02D8C
:10076000AC01BE016F5F7F4FC5011995F10100819A
:1007700011815801F3E0AF0EB11CD80193968D9111
:100780009C919497DC01ED91FC910284F385E02D1E
:10079000199597FD6BCF87FD04C0F80122812223B4
:1007A00031F0D80111961C921E9212961C92F801FB
:1007B000208131812032310540F4A9014F5F5F4F24
:1007C00051834083E20FF31F8383D8014D915C91E5
:1007D000119745305105F8F013968C91139787FFC8
:1007E0001AC015968C9190E09A012550310928176E
:1007F000390789F4EFEFFFE3FA83E983B501CE010E
:10080000019690D689819A8181389F4021F4E1E058
:10081000D8011296EC93D80112968C91882309F492
:10082000ACCF02C081E070CFD101ED91FC91119766
:10083000938113968C91981319CF8481833409F096
:1008400015CF00811181055011095F01B6E0AB0E93
:10085000B11CCE0101961BD5BAA2A9A2F501E00FE9
:10086000F11FFCA3EBA3BE016E5F7F4FCE0181960B
:100870001AD5882309F48DC0BE016D5F7F4FCE016C
:10088000819611D5882309F484C08B8184FD04C02E
:100890008B8186FD0AC012C0BE016C5F7F4FCE0106
:1008A000819601D58111F4CF74C0BE016B5F7F4F7B
:1008B000CE018196F8D4882309F46BC0BE016A5F2B
:1008C0007F4FCE018196EFD4B82E882309F461C002
:1008D00000E010E020E030E0A9011BC021966FADE0
:1008E0002197862F8F7390E0A0E0B0E0002E04C027
:1008F000880F991FAA1FBB1F0A94D2F7282B392BE8
:100900004A2B5B2B66FF25C00A5F1F4F0E31110576
:1009100001F1BE01605C7F4FCE01819627962FAF1B
:10092000279728963FAF289729964FAF29972A9661
:100930005FAF2A97B8D427962FAD279728963FAD5B
:10094000289729964FAD29972A965FAD2A9781114E
:10095000C5CFDA01C901B695A7959795879520FF70
:1009600007C0B095A095909581959F4FAF4FBF4F11
:100970008F839887A987BA872B8120FF05C0181617
:1009800019061A061B062CF4BB2019F081E0898396
:1009900003C0CE0101967BD48981882309F466CEF9
:1009A0009C81F1018485981361CE8AE0FE01319625
:1009B000D40101900D928A95E1F7C401C75BDF4F26
:1009C0000FB6F894DEBF0FBECDBFDF91CF911F9160
:1009D0000F91FF90EF90DF90CF90BF90AF909F90DE
:1009E0008F907F906F905F904F903F902F900895E1
:1009F0001F920F920FB60F9211240BB60F922F93E6
:100A00003F934F935F936F937F938F939F93AF9396
:100A1000BF93EF93FF938091B900887F803609F4EC
:100A20009CC068F5883209F45BC090F4803109F409
:100A300054C038F4882309F4F6C0883009F44DC056
:100A4000F5C0883109F44CC0803209F45DC0EEC0B5
:100A5000803409F468C048F4803309F455C0883301
:100A600009F0E4C08093C002D8C0803509F44FC0BB
:100A7000883509F45DC0883409F0D8C0D6C08839FB
:100A800009F4C7C0A8F4883709F467C038F4883679
:100A900009F463C0803709F460C0C8C0883809F41D
:100AA000B8C0803909F45FC0803809F0BFC05BC0AE
:100AB000803B09F486C038F4803A09F466C0883A6D
:100AC00009F47FC0B3C0803C09F4A7C0883C09F496
:100AD000A4C0883B09F48AC0A9C08091E60210C076
:100AE0009091E5028091E402981770F5E091E5029B
:100AF00081E08E0F8093E502F0E0EC53FD4F8081A2
:100B00008093BB0085EC86C08093C0028EC0E091CC
:100B1000E50281E08E0F8093E5028091BB00F0E05A
:100B2000EC53FD4F80839091E5028091E4026EC00A
:100B3000E091E50281E08E0F8093E5028091BB0099
:100B4000F0E0EC53FD4F80838091C30281116DC0B2
:100B500081E08093C20284EA61C083E08093C10295
:100B60001092BF02CFCF8091BF02803208F051C0F7
:100B7000E091BF0281E08E0F8093BF028091BB00A5
:100B8000F0E0E156FD4F8083BDCF85EC8093BC0043
:100B90001092C1028091BF02803230F4E091BF0216
:100BA000F0E0E156FD4F10826091BF0270E0E091ED
:100BB0009D02F0919E028FE992E019951092BF027A
:100BC00035C084E08093C10210929C0210929B0277
:100BD000E0919902F0919A02199580919B028111FE
:100BE00005C081E080939B0210927902E0919C0203
:100BF00081E08E0F80939C02F0E0E758FD4F8081EA
:100C00008093BB0090919C0280919B02981708F4FE
:100C100079CF85E88093BC0009C085EC8093BC0047
:100C20001092C10203C01092C00290DAFF91EF91BE
:100C3000BF91AF919F918F917F916F915F914F91F4
:100C40003F912F910F900BBE0F900FBE0F901F90F2
:100C50001895CF92DF92EF92FF92CF93DF93EC0142
:100C60009A01AB012C593F4F4F4F5F4F293C310543
:100C700041055105E0F4CBA0DCA0EDA0FEA0C7012A
:100C8000B601660F771F881F991F0E94E11128EC9B
:100C900030E040E050E00E941212DA01C9018C19E4
:100CA0009D09AE09BF098BA79CA7ADA7BEA7DF9181
:100CB000CF91FF90EF90DF90CF900895CF92DF9289
:100CC000EF92FF920F931F93CF93DF936C017A0102
:100CD0008B01C0E0D0E0CE15DF0589F0D8016D9121
:100CE0008D01D601ED91FC910190F081E02DC601BE
:100CF0001995892B11F47E0102C02196ECCFC70112
:100D0000DF91CF911F910F91FF90EF90DF90CF90E7
:100D10000895FC01A089B1898C91A689B78982FDCB
:100D20000FC09C91818D8F5F8F73228D821749F048
:100D3000218DDF01A20FB11D5D969C93818F0895D7
:100D40008C910895FC01538D448D252F30E0842F24
:100D500090E0821B930B541710F0CF9608950197E3
:100D60000895FC01918D828D981761F0828DDF01CD
:100D7000A80FB11D5D968C91928D9F5F9F73928F8E
:100D800090E008958FEF9FEF0895FC01918D828D83
:100D9000981731F0828DE80FF11D858D90E0089550
:100DA0008FEF9FEF0895FC01918D228D892F90E0A8
:100DB000805C9F4F821B91098F739927089582E76A
:100DC00094E0F1DF21E0892B09F420E0822F0895DF
:100DD00080EF92E0E8DF21E0892B09F420E0822F08
:100DE00008958DE893E0DFDF21E0892B09F420E00E
:100DF000822F0895FC01848DDF01A80FB11DA35A35
:100E0000BF4F2C91848D90E001968F739927848F2A
:100E1000A689B7892C93A089B1898C9180648C9321
:100E2000938D848D981306C00288F389E02D80810C
:100E30008F7D80830895EF92FF920F931F93CF933E
:100E4000DF93EC0181E0888F9B8D8C8D981305C01A
:100E5000E889F989808185FD23C0F62E0B8D10E08D
:100E60000F5F1F4F0F731127E02E8C8DE8120BC000
:100E70000FB607FCFACFE889F989808185FFF5CFA5
:100E8000CE01B8DFF2CF8B8DFE01E80FF11DE35AE2
:100E9000FF4FF0820B8FEA89FB898081806207C057
:100EA000EE89FF896083E889F98980818064808385
:100EB00081E090E0DF91CF911F910F91FF90EF9033
:100EC0000895CF93DF93EC01888D8823C1F0EA89E0
:100ED000FB89808185FD05C0A889B9898C9186FD33
:100EE0000EC00FB607FCF5CF808185FFF2CFA88931
:100EF000B9898C9185FFEDCFCE017CDFE8CFDF9102
:100F0000CF9108956EDF81111BC080E090E0892BA6
:100F100019F05EDF811116C080E090E0892B41F06E
:100F200080E090E0892B21F00E94000081110DC02B
:100F300080E090E0892B71F042DF811109C00895B3
:100F40006DD9E3CF0E940000E7CF0E940000F0CFF0
:100F50000C94000008950E945E15EF92FF920F938B
:100F60001F93CF93DF93EC01198218821B821A82A0
:100F70001D821C826115710511F18B01FB0101902D
:100F80000020E9F731977F01E61AF70AB701A2D3EB
:100F9000811108C0CE01DF91CF911F910F91FF9079
:100FA000EF90BFC3FD82EC82B80188819981DF9107
:100FB000CF911F910F91FF90EF900C946B15DF91E3
:100FC000CF911F910F91FF90EF90089561157105DA
:100FD00079F0FB0101900020E9F73197AF01461B42
:100FE000570BDC01ED91FC910280F381E02D199407
:100FF00080E090E008951F920F920FB60F92112497
:101000000BB60F922F933F934F935F936F937F9302
:101010008F939F93AF93BF93EF93FF9382E794E0F7
:10102000E9DEFF91EF91BF91AF919F918F917F91F9
:101030006F915F914F913F912F910F900BBE0F9049
:101040000FBE0F901F9018951F920F920FB60F9220
:1010500011240BB60F922F933F934F935F936F938F
:101060007F938F939F93AF93BF93EF93FF9382E709
:1010700094E04FDEFF91EF91BF91AF919F918F91DF
:101080007F916F915F914F913F912F910F900BBE88
:101090000F900FBE0F901F9018951F920F920FB6D2
:1010A0000F9211240BB60F922F933F934F935F93A0
:1010B0006F937F938F939F93AF93BF93EF93FF9320
:1010C00080EF92E097DEFF91EF91BF91AF919F91FA
:1010D0008F917F916F915F914F913F912F910F90E1
:1010E0000BBE0F900FBE0F901F9018951F920F927E
:1010F0000FB60F9211240BB60F922F933F934F937D
:101100005F936F937F938F939F93AF93BF93EF936F
:10111000FF9380EF92E0FDDDFF91EF91BF91AF91E2
:101120009F918F917F916F915F914F913F912F91FF
:101130000F900BBE0F900FBE0F901F9018951F922F
:101140000F920FB60F9211240BB60F922F933F936D
:101150004F935F936F937F938F939F93AF93BF93BF
:10116000EF93FF938DE893E045DEFF91EF91BF9100
:10117000AF919F918F917F916F915F914F913F912F
:101180002F910F900BBE0F900FBE0F901F901895D0
:101190001F920F920FB60F9211240BB60F922F933E
:1011A0003F934F935F936F937F938F939F93AF93EF
:1011B000BF93EF93FF938DE893E0ABDDFF91EF9149
:1011C000BF91AF919F918F917F916F915F914F915F
:1011D0003F912F910F900BBE0F900FBE0F901F905D
:1011E00018952FB7F8946091EC027091ED02809100
:1011F000EE029091EF022FBF08951F920F920FB64B
:101200000F9211242F933F938F939F93AF93BF938C
:101210008091EC029091ED02A091EE02B091EF026C
:101220003091EB0223E0230F2D3720F40196A11D0E
:10123000B11D05C026E8230F0296A11DB11D209304
:10124000EB028093EC029093ED02A093EE02B09338
:10125000EF028091E7029091E802A091E902B0913B
:10126000EA020196A11DB11D8093E7029093E80266
:10127000A093E902B093EA02BF91AF919F918F9141
:101280003F912F910F900FBE0F901F901895FC016A
:1012900010821582148213821282118216821782A2
:1012A000108611860895DC01ED91FC91119712963C
:1012B0008D919C911397E817F90739F08191ED937F
:1012C000FC93FB01808381E0089580E00895CF9234
:1012D000DF92EF92FF920F931F93CF93DF931F92B2
:1012E0001F92CDB7DEB77C01FC016083418302838E
:1012F000F901DC011396C901800F911FE817F90766
:1013000019F021912D93FACF6801F3E0CF0ED11C93
:101310008FEF9FE39A838983A601B701CE010196DF
:1013200001D129813A8120958FE33827F701EC0D0F
:10133000FD1D822F8F778083F701E00FF11F220FB1
:10134000232F221F330B31952F772483C801059655
:101350000F900F90DF91CF911F910F91FF90EF9021
:10136000DF90CF900895CF92DF92EF92FF920F938C
:101370001F93CF93DF93CDB7DEB72A970FB6F894BC
:10138000DEBF0FBECDBF6C017A018B0120E430E0DF
:1013900041E050E0BC01CE0101962AD98AE0FE016D
:1013A0003196D70101900D928A95E1F7F70182817C
:1013B00080FF04C08681978197FD08C0F701848172
:1013C000F601878F81E080A380E001C081E02A964A
:1013D0000FB6F894DEBF0FBECDBFDF91CF911F9146
:1013E0000F91FF90EF90DF90CF9008958F929F9292
:1013F000AF92BF92DF92EF92FF920F931F93CF9322
:10140000DF93CDB7DEB7EF970FB6F894DEBF0FBE10
:10141000CDBFDC01ED91FC911197E3A0F4A01296F1
:101420008C9112978DA382E090E09CA38BA32EA3B6
:1014300026FF08C05F968C915F9723E030E03CA3C5
:101440002BA38FA3FA01828193812BA13CA14A0196
:10145000F4E08F0E911C40E050E08A01020F131F50
:101460004817590779F0F401D1904F01E1E2AE2E0F
:10147000B12CAC0EBD1E0A0D1B1DF801D4824F5FAE
:101480005F4FEBCF1CA30BA39E012B5D3F4FAB0126
:1014900013966C91CE0101961ADFD701ED91FC9164
:1014A0000280F381E02DAC01BE016F5F7F4FC70169
:1014B0001995EF960FB6F894DEBF0FBECDBFDF9142
:1014C000CF911F910F91FF90EF90DF90BF90AF9061
:1014D0009F908F900895FC01A089B18982E08C9340
:1014E000A485B5851C92A685B7858FEC8C93108E4C
:1014F000A489B58986E08C93A289B3898C91806197
:101500008C93A289B3898C9188608C93A289B389CA
:101510008C9180688C930288F389E02D80818F7D87
:1015200080830895DC01FB01460F571FE417F50780
:10153000E1F021912F778D919C911197822711963F
:101540009C938E9327E06D917C911197CB0196959A
:10155000879560FF04C030EF832732E2932711960E
:101560009C938E93215079F7E1CF08953F924F924B
:101570005F926F927F928F929F92AF92BF92CF9223
:10158000DF92EF92FF920F931F93CF93DF93CDB72C
:10159000DEB762970FB6F894DEBF0FBECDBF7C01F9
:1015A0006B015A01FC014584568467847088FFEF03
:1015B0004F1A5F0A6F0A7F0AFC01458656866786C6
:1015C000708A81A1882329F020E030E0C7010EDF76
:1015D0005BC0F70180859185A285B3858D839E834D
:1015E000AF83B887FEDD69837A838B839C83F701A1
:1015F00080A1882379F081E090E0F701928B818BC4
:1016000080E490E0948B838B878D8F5F87FF0DC084
:1016100081E00BC0A7014B5E5F4FBE016F5F7F4F44
:10162000C701A1DE811130C0E6CFF701878F8AE0C4
:10163000382EC70145964C0120E430E0A501B601E3
:10164000C701D4DEF70123893489418952898E018B
:101650000F5F1F4FB701CE0109960E94F802FE01ED
:101660003996D401832D01900D928A95E1F7F70107
:10167000878980FF04C0838D948D97FD05C0F70195
:10168000918D878D9813D8CFFA82E9824B825C8244
:101690006D827E822E2D3A81442D5C816D817E810A
:1016A00080E090E062960FB6F894DEBF0FBECDBF2B
:1016B000DF91CF911F910F91FF90EF90DF90CF902E
:1016C000BF90AF909F908F907F906F905F904F9062
:1016D0003F9008950F931F93CF93DF93EC01888180
:1016E0009981009729F02A813B812617370788F4D2
:1016F0008B016F5F7F4F0E947A14009761F099838E
:1017000088831B830A832C813D81232B11F4FC01E8
:10171000108281E001C080E0DF91CF911F910F9195
:101720000895CF93DF93EC0188819981009711F0A0
:101730000E94E213198218821D821C821B821A8267
:10174000DF91CF9108950F931F93CF93DF93EC0117
:101750000C811D810F5F1F4FB801BCDF882369F02A
:10176000288139818C819D816CE472E0820F931F06
:101770000E946B151D830C8302C0CE01D2DFCE0107
:10178000DF91CF911F910F910895EF92FF920F93E8
:101790001F93CF93DF93EC01FB0184819581E0805F
:1017A000F1800C811D81E114F104A9F00097A9F0EA
:1017B000080F191FB801CE018DDF882361F0288141
:1017C00039818C819D81B701820F931F0E946B1517
:1017D0001D830C8302C0CE01A4DFCE01DF91CF9127
:1017E0001F910F91FF90EF900895FC0180819181EE
:1017F000E9C7CF92DF92EF92FF920F931F93CF939F
:10180000DF931F921F92CDB7DEB78C01FC011182CE
:101810001082138212821582148269831A82CE0189
:1018200001966C01FC0101900020E9F731977F01DE
:10183000E81AF90AB701C8014DDF811103C0C801D8
:1018400070DF08C0F801F582E482B60180819181E1
:101850000E946B150F900F90DF91CF911F910F9108
:10186000FF90EF90DF90CF90089581E495E0BDDF89
:101870008BE395E0BACFCF93DF93CDB7DEB7E79791
:101880000FB6F894DEBF0FBECDBF789484B58260EA
:1018900084BD84B5816084BD85B5826085BD85B514
:1018A000816085BD80916E00816080936E00109292
:1018B000810080918100826080938100809181000D
:1018C000816080938100809180008160809380009E
:1018D0008091B10084608093B1008091B0008160FC
:1018E0008093B000809191008260809391008091FC
:1018F000910081608093910080919000816080933D
:1019000090008091A10082608093A1008091A1004D
:1019100081608093A1008091A00081608093A000ED
:101920008091210182608093210180912101816059
:10193000809321018091200181608093200180911A
:101940007A00846080937A0080917A00826080932C
:101950007A0080917A00816080937A0080917A0089
:10196000806880937A001092C10010926E041092E9
:101970006F04109270041092710410922C04109253
:101980002D0410922E0410922F042BDC6B017C018D
:101990004B015C0128EB820E2BE0921EA11CB11CB6
:1019A00020DC6C157D058E059F0528F086169706B0
:1019B000A806B906A8F78DE893E090936D0480938C
:1019C0006C0489DD0EDC60932C0470932D048093ED
:1019D0002E0490932F046EE472E080916C04909139
:1019E0006D04F4DAFEDB6B017C014B015C018AE0E3
:1019F000880E911CA11CB11CF4DB6C157D058E05B5
:101A00009F0528F086169706A806B906A8F781E074
:101A10008093400480913705909138055CDD80917A
:101A20004705909148056C01A3E1CA0ED11C7C01C9
:101A3000B7E1EB0EF11CF601819191916F011C82CF
:101A40001B82AE014F5F5F4F60E270E08FDD2AA71F
:101A50003BA74CA75DA76EA77FA7EAA5FBA54CA552
:101A60005DA56EA57FA585859685A785B089481754
:101A700059076A077B0719F0CE01809608DCCE145F
:101A8000DF04C9F680EF92E026DD8DE893E023DDE8
:101A900060E672E08DE893E099DA6DE572E08DE83A
:101AA00093E094DA22242394312CE0904705F090BF
:101AB0004805D7015396ED91FC91549751962D917D
:101AC0003C91529730AB27A755968D919C91569794
:101AD000DC01D0963C932E939F972130310509F07D
:101AE0004CC0D70150962C915097211146C01896A2
:101AF0004D915D916D917C911B974A015B01B4EB17
:101B00008B0E911CA11CB11C29E6821621E09206C5
:101B1000A104B10490F577FF0AC04A015B017095FA
:101B20006095509541955F4F6F4F7F4F16C041159F
:101B300051056105710541F0882499245401841AE6
:101B4000950AA60AB70A09C0D7011C964D915D9166
:101B50006D917C911F974A015B01DC01D1964D93F9
:101B60005D936D937C93D49730AA27A681AA92AAFD
:101B7000A3AAB4AA21E0F701208BD7014D915D9172
:101B80006D917C9166D8F70144815581668177819A
:101B9000838994895ED85701F3E1AF0EB11C27E128
:101BA000E20EF11CE2E08E2EFAE09F2ED501CD90E0
:101BB000DD905D01F60182A18823E9F043A054A0E5
:101BC00065A076A0A3019201220F331F441F551F69
:101BD000A4E6B0E043D428EC30E040E050E022D46A
:101BE000DA01C90184199509A609B709F60183A785
:101BF00094A7A5A7B6A7D6019B964D905D906D9032
:101C00007C909E9797968D919D910D90BC91A02D63
:101C1000481659066A067B0609F47FC0F60183A1BF
:101C200094A1A5A1B6A144275527BA01481B590B79
:101C30006A0B7B0B44165506660677060CF46DC0DE
:101C400084159505A605B7050CF467C081E090E002
:101C50009C838B838D8291E049165104610490EE40
:101C600079067CF0D301C201411451046104E0E221
:101C70007E0624F08FEF9FEFAFEFBFE1B7FF12C0FA
:101C800004C081E090E0A0E0B0EEB095A095909502
:101C900081959F4FAF4FBF4F880F991FAA1FBB1F42
:101CA000816004C0880F991FAA1FBB1F2B813C8134
:101CB000482F4F7380349105A105B10510F450E011
:101CC00001C050E42F5F3F4FE1E0F0E0EC0FFD1F5B
:101CD000E20FF31F452B438346E0B695A7959795F2
:101CE00087954A95D1F70097A105B10509F73C837F
:101CF0002B83AE014F5F5F4F64E270E0C60136DCBC
:101D00002AAB3BAB4CAB5DAB6EAB7FABD6019796D2
:101D10004D925D926D927C929A97F60180859185A5
:101D2000A285B3858EA79FA7A8ABB9AB5ADA6AA7DD
:101D30007BA78CA79DA7CE010196A9DAD601909624
:101D40008C91811114C0AE014F5F5F4FBE01665D83
:101D50007F4FC60108DB882351F0FE013196DE017A
:101D60009096892D01900D928A95E1F70CC08E0115
:101D7000065D1F4F20E030E042E050E0B601CE01AA
:101D800080960E94F802FE01B096D601D596892D64
:101D900001900D928A95E1F7AE14BF0409F006CFC9
:101DA0000E940E01AFD881CE2F923F924F925F9248
:101DB0006F927F928F929F92AF92BF92DF92EF923B
:101DC000FF920F931F93CF93DF9300D01F92CDB755
:101DD000DEB7109275041092740488EE93E0A0E0D0
:101DE000B0E08093760490937704A0937804B09346
:101DF00079042AE032E0309373042093720445E3BF
:101E000051E050937F0440937E0444E351E05093AB
:101E100081044093800440E351E050938304409355
:101E2000820441E351E0509385044093840442E3EB
:101E300051E0509387044093860446E351E0509369
:101E400089044093880410928B0410928C041092A1
:101E50008D0410928E041092F3021092F20280937D
:101E6000F4029093F502A093F602B093F702309338
:101E7000F1022093F0024DEC50E05093FD024093AC
:101E8000FC024CEC50E05093FF024093FE0248EC01
:101E900050E0509301034093000349EC50E050930D
:101EA0000303409302034AEC50E050930503409330
:101EB00004034EEC50E05093070340930603109246
:101EC000090310920A0310920B0310920C03109254
:101ED000900310928F038093910390939203A093A9
:101EE0009303B093940330938E0320938D0325ECDA
:101EF00030E030939A032093990324EC30E0309340
:101F00009C0320939B0320EC30E030939E032093AE
:101F10009D0321EC30E03093A00320939F0322EC3B
:101F200030E03093A2032093A10326EC30E03093FD
:101F3000A4032093A3031092A6031092A703109268
:101F4000A8031092A9031092300410923104109249
:101F5000320410923304109234041092350410921B
:101F600036041092370410923804109239041092FB
:101F70003A0410923B0410923C0410923D041092DB
:101F80003E0410923F041092B2051092B105809366
:101F9000B3059093B405A093B505B093B6058CE155
:101FA00092E09093B0058093AF056FE572E08BE30C
:101FB00095E00E94AD076FE572E081E495E00E9434
:101FC000AD0700E010E0C801855B9A4F60D9065F5D
:101FD0001F4F04361105B9F702E714E010933805D6
:101FE0000093370585E290E058D37C01DC0111961F
:101FF0001C921E9212961C92129794961C930E930A
:10200000939790933A058093390581E390E045D307
:102010008C01FC01108211821282138214821582BB
:1020200016821782108611861286138614861586EC
:102030001686178681E0808B128A118A13A214A259
:1020400015A216A217A210A611A612A613A614A6D0
:1020500015A616A68FE390E020D31C01DC01119693
:10206000FC92EE9212961C92129720E8D22E1396B2
:10207000DC9213971C961C92FC0115861686178617
:10208000108A459604D9D1015F961C925F9790966D
:102090001C92909783E312968C93129744E650E03B
:1020A00060E070E0F10144835583668377834424C4
:1020B0004A94542C320118964D925D926D927C9206
:1020C0001B9791961C92919792961C929297812CB5
:1020D000912C5401839487A290A6A1A6B2A69B96A8
:1020E0001D921D921D921C929E97C101C596498317
:1020F0005A836B837C83CBD8F801348A238A8FE39D
:1021000090E0CBD21C01DC011196FC92EE9212966B
:102110001C9212971396DC9213971C961C92FC014A
:10212000158616861786108A4596B1D8D1015F9616
:102130001C925F9790961C92909784E312968C93D2
:10214000129749815A816B817C81F10144835583C7
:102150006683778318964D925D926D927C921B9761
:1021600091961C92919792961C92929787A290A614
:10217000A1A6B2A69B961D921D921D921C929E979F
:10218000C101C59684D8F801368A258A0388F48966
:10219000E02D88E893E1A0E0B0E083A394A3A5A399
:1021A000B6A3F10183A394A3A5A3B6A310934805F6
:1021B000009347050F900F900F900F90DF91CF91F4
:1021C0001F910F91FF90EF90DF90BF90AF909F9085
:1021D0008F907F906F905F904F903F902F900895D9
:1021E000E89409C097FB3EF49095809570956195B1
:1021F0007F4F8F4F9F4F9923A9F0F92F96E9BB2767
:102200009395F695879577956795B795F111F8CFE2
:10221000FAF4BB0F11F460FF1BC06F5F7F4F8F4F4D
:102220009F4F16C0882311F096E911C0772321F043
:102230009EE8872F762F05C0662371F096E8862FDB
:1022400070E060E02AF09A95660F771F881FDAF732
:10225000880F9695879597F908950BD078C069D027
:1022600028F06ED018F0952309F05AC05FC01124F1
:10227000A2C07ED0A0F3959FD1F3950F50E0551FDB
:10228000629FF001729FBB27F00DB11D639FAA27CB
:10229000F00DB11DAA1F649F6627B00DA11D661F1A
:1022A000829F2227B00DA11D621F739FB00DA11D3B
:1022B000621F839FA00D611D221F749F3327A00DF5
:1022C000611D231F849F600D211D822F762F6A2F91
:1022D00011249F5750408AF0E1F088234AF0EE0F16
:1022E000FF1FBB1F661F771F881F91505040A9F723
:1022F0009E3F510570F014C05EC05F3FECF3983E06
:10230000DCF3869577956795B795F795E7959F5F89
:10231000C1F7FE2B880F911D9695879597F9089523
:1023200097F99F6780E870E060E008959FEF80EC88
:10233000089500240A94161617061806090608952B
:1023400000240A9412161306140605060895092E91
:102350000394000C11F4882352F0BB0F40F4BF2B00
:1023600011F460FF04C06F5F7F4F8F4F9F4F089540
:1023700057FD9058440F551F59F05F3F71F0479536
:10238000880F97FB991F61F09F3F79F0879508951B
:10239000121613061406551FF2CF4695F1DF08C03A
:1023A000161617061806991FF1CF86957105610557
:1023B00008940895E894BB2766277727CB0197F9FF
:1023C0000895DB018F939F9349D0BF91AF91A29F56
:1023D000800D911DA39F900DB29F900D1124089523
:1023E000A1E21A2EAA1BBB1BFD010DC0AA1FBB1F19
:1023F000EE1FFF1FA217B307E407F50720F0A21B8B
:10240000B30BE40BF50B661F771F881F991F1A94F7
:1024100069F760957095809590959B01AC01BD0121
:10242000CF010895052E97FB16F400940FD057FDA9
:1024300005D0D6DF07FC02D046F408C05095409581
:10244000309521953F4F4F4F5F4F08959095809560
:10245000709561957F4F8F4F9F4F089509D0A59F2D
:10246000900DB49F900DA49F800D911D112408958F
:10247000A29FB001B39FC001A39F700D811D1124C5
:10248000911DB29F700D811D1124911D089550580A
:10249000BB27AA270ED05BCF4CDF30F051DF20F0F6
:1024A00031F49F3F11F41EF441CF0EF4E095E7FBA9
:1024B00037CFE92F5DDF80F3BA1762077307840710
:1024C000950718F071F49EF575CF0EF4E0950B2E7C
:1024D000BA2FA02D0B01B90190010C01CA01A00176
:1024E0001124FF27591B99F0593F50F4503E68F1D1
:1024F0001A16F040A22F232F342F4427585FF3CF12
:10250000469537952795A795F0405395C9F77EF4E2
:102510001F16BA0B620B730B840BBAF09150A1F02B
:10252000FF0FBB1F661F771F881FC2F70EC0BA0FB1
:10253000621F731F841F48F4879577956795B79539
:10254000F7959E3F08F0B3CF9395880F08F0992731
:10255000EE0F9795879508950CD0F9CEF1DE40F0F7
:10256000E8DE30F021F45F3F19F0DACE511123CFCD
:10257000DDCEFEDE98F39923C9F35523B1F3951B05
:10258000550BBB27AA2762177307840738F09F5F94
:102590005F4F220F331F441FAA1FA9F333D00E2E03
:1025A0003AF0E0E830D091505040E695001CCAF770
:1025B00029D0FE2F27D0660F771F881FBB1F261735
:1025C00037074807AB07B0E809F0BB0B802DBF0108
:1025D000FF2793585F4F2AF09E3F510568F0A0CE29
:1025E000EACE5F3FECF3983EDCF3869577956795EE
:1025F000B795F7959F5FC9F7880F911D96958795B9
:1026000097F90895E1E0660F771F881FBB1F6217D7
:1026100073078407BA0720F0621B730B840BBA0B95
:10262000EE1F88F7E095089504D06894B111C3CEE9
:102630000895A6DE88F09F5790F0B92F9927B751DB
:10264000A0F0D1F0660F771F881F991F1AF0BA9576
:10265000C9F712C0B13081F0ADDEB1E00895AACE65
:10266000672F782F8827B85F39F0B93FCCF386956C
:1026700077956795B395D9F73EF4909580957095C9
:1026800061957F4F8F4F9F4F0895EE0FFF1F881F5B
:102690008BBF0790F691E02D1994CF93DF93823092
:1026A000910510F482E090E0E091BD05F091BE0547
:1026B00020E030E0C0E0D0E0309711F1408151815E
:1026C00048175907C0F04817590761F48281938170
:1026D000209719F09B838A832BC09093BE0580932B
:1026E000BD0526C02115310519F04217530718F40E
:1026F0009A01BE01DF01EF010280F381E02DDCCF02
:102700002115310509F1281B390B2430310590F4CE
:1027100012968D919C9113976115710521F0FB0123
:102720009383828304C09093BE058093BD05FD0111
:10273000329644C0FD01E20FF31F81939193225022
:1027400031092D933C933AC02091BB053091BC05D3
:10275000232B41F420910202309103023093BC05F7
:102760002093BB0520910002309101022115310513
:1027700041F42DB73EB74091040250910502241B4D
:10278000350BE091BB05F091BC05E217F307A0F40F
:102790002E1B3F0B2817390778F0AC014E5F5F4FB7
:1027A0002417350748F04E0F5F1F5093BC05409328
:1027B000BB058193919302C0E0E0F0E0CF01DF918F
:1027C000CF9108950F931F93CF93DF93009709F450
:1027D0008CC0FC013297138212820091BD051091CA
:1027E000BE050115110581F420813181820F931FEF
:1027F0002091BB053091BC052817390779F5F09376
:10280000BC05E093BB0571C0D80140E050E0AE17B5
:10281000BF0750F412962D913C911397AD012115ED
:10282000310509F1D901F3CF9D01DA013383228308
:1028300060817181860F971F8217930769F4EC01FD
:1028400028813981260F371F2E5F3F4F3183208328
:102850008A819B8193838283452B29F4F093BE0563
:10286000E093BD0542C01396FC93EE931297ED01E1
:10287000499159919E01240F351FE217F30771F416
:1028800080819181840F951F029611969C938E935F
:102890008281938113969C938E931297E0E0F0E0EF
:1028A000D80112968D919C911397009719F0F80119
:1028B0008C01F6CF8D919C9198012E5F3F4F820F36
:1028C000931F2091BB053091BC052817390769F487
:1028D000309729F41092BE051092BD0502C01382F4
:1028E00012821093BC050093BB05DF91CF911F911D
:1028F0000F9108956F927F928F929F92AF92BF92A5
:10290000CF92DF92EF92FF920F931F93CF93DF93BB
:10291000EC01009781F4CB01DF91CF911F910F91D2
:10292000FF90EF90DF90CF90BF90AF909F908F90EF
:102930007F906F90B2CEFC01E60FF71F9C012250F2
:102940003109E217F30708F4A8C0D9010D911C91D1
:10295000119706171707A8F00530110508F49BC05A
:10296000C80104978617970708F495C0025011090B
:10297000061B170B019311936D937C93CF0122DFFC
:102980008AC05B01A01AB10A4C01800E911EA09171
:10299000BD05B091BE0540E050E0E12CF12C109750
:1029A00009F44AC0A815B905D1F56D907C9011972E
:1029B000630182E0C80ED11CCA14DB0480F1A301BC
:1029C0004A195B096A0182E0C80ED11C1296BC90BC
:1029D00012971396AC91B5E0CB16D10440F0B282B9
:1029E000A38351834083D9016D937C930AC00E5F0A
:1029F0001F4FC301800F911FF90191838083EB2D3D
:102A0000FA2FE114F10431F0D7011396FC93EE9301
:102A1000129741C0F093BE05E093BD053CC08D9177
:102A20009C9111974817590708F4AC017D01129643
:102A30000D90BC91A02DB3CF8091BB059091BC05AA
:102A400088159905E1F446175707C8F480910002EC
:102A500090910102009741F48DB79EB74091040216
:102A600050910502841B950BE817F907B0F4F09319
:102A7000BC05E093BB05F901718360830CC0CB01F9
:102A80000CDE7C01009749F0A801BE011BD0CE01ED
:102A900099DEC70104C0CE0102C080E090E0DF9162
:102AA000CF911F910F91FF90EF90DF90CF90BF904B
:102AB000AF909F908F907F906F90089581E090E00D
:102AC000F89410C0FB01DC0102C001900D9241504E
:102AD0005040D8F70895FB01DC0101900D920020D1
:102AE000E1F7089510E0C3E7D0E000E005C0802FD3
:102AF000FE01CBDD2196011DC437D10780E0080718
:062B0000B1F7F894FFCFCD
:102B06000000BF058000000000001B075E06A2064D
:102B16006107D306B106C50600000000FA00E6000C
:102B26000B01D800DF00DC00D900436865636B73D6
:102B3600756D206661696C732E00756E68616E64D2
:102B4600646C6520636F6D6D616E643A2000564D4E
:102B56004450565F317C315F564D4450560D0A0045
:102B66004D6F746F7220636F6E74726F6C20737426
:082B7600617274656421000026
:020000023000CC
:10E000000D9489F10D94B2F10D94B2F10D94B2F129
:10E010000D94B2F10D94B2F10D94B2F10D94B2F1F0
:10E020000D94B2F10D94B2F10D94B2F10D94B2F1E0
:10E030000D94B2F10D94B2F10D94B2F10D94B2F1D0
:10E040000D94B2F10D94B2F10D94B2F10D94B2F1C0
:10E050000D94B2F10D94B2F10D94B2F10D94B2F1B0
:10E060000D94B2F10D94B2F10D94B2F10D94B2F1A0
:10E070000D94B2F10D94B2F10D94B2F10D94B2F190
:10E080000D94B2F10D94B2F10D94B2F10D94B2F180
:10E090000D94B2F10D94B2F10D94B2F10D94B2F170
:10E0A0000D94B2F10D94B2F10D94B2F10D94B2F160
:10E0B0000D94B2F10D94B2F10D94B2F10D94B2F150
:10E0C0000D94B2F10D94B2F10D94B2F10D94B2F140
:10E0D0000D94B2F10D94B2F10D94B2F10D94B2F130
:10E0E0000D94B2F141546D656761323536300041AF
:10E0F000726475696E6F206578706C6F72657220DE
:10E1000073746B3530305632206279204D4C530099
:10E11000426F6F746C6F616465723E004875683F52
:10E1200000436F6D70696C6564206F6E203D200048
:10E130004350552054797065202020203D20005FF9
:10E140005F4156525F415243485F5F3D2000415658
:10E1500052204C696243205665723D20004743437C
:10E160002056657273696F6E203D20004350552024
:10E1700049442020202020203D20004C6F7720663D
:10E18000757365202020203D20004869676820665F
:10E190007573652020203D200045787420667573D6
:10E1A00065202020203D20004C6F636B2066757336
:10E1B000652020203D20004D617220203720323024
:10E1C000313300312E362E3800342E332E350056A2
:10E1D00023202020414444522020206F7020636F70
:10E1E00064652020202020696E73747275637469E1
:10E1F0006F6E2061646472202020496E74657272B3
:10E20000757074006E6F20766563746F7200726A49
:10E210006D702020006A6D70200057686174207056
:10E220006F72743A00506F7274206E6F7420737541
:10E2300070706F72746564004D7573742062652030
:10E2400061206C6574746572002000577269747483
:10E25000696E672045450052656164696E672045B7
:10E26000450045452065727220636E743D00504F35
:10E27000525400303D5A65726F2061646472003FF1
:10E280003D43505520737461747300403D454550C3
:10E29000524F4D207465737400423D426C696E6B41
:10E2A000204C454400453D44756D70204545505215
:10E2B0004F4D00463D44756D7020464C415348001B
:10E2C000483D48656C70004C3D4C69737420492F83
:10E2D0004F20506F72747300513D51756974005234
:10E2E0003D44756D702052414D00563D73686F7707
:10E2F00020696E7465727275707420566563746FF0
:10E30000727300593D506F727420626C696E6B00BD
:10E310002A0011241FBECFEFD1E2DEBFCDBF01E046
:10E320000CBF12E0A0E0B2E0EEE1FDEF03E00BBFB6
:10E3300002C007900D92A030B107D9F712E0A0E01B
:10E34000B2E001C01D92AE30B107E1F70F9460F367
:10E350000D948DFE01E20EBF0FEF0DBF11241FBE05
:10E360000D9460F30D9400F020E030E040ED57E0B4
:10E3700005C0FA013197F1F72F5F3F4F2817390792
:10E38000C0F308959C01260F311DC901A0E0B0E043
:10E390002F5F3F4FABBFFC018791882361F08093D3
:10E3A000C6008091C00086FFFCCF8091C0008064D1
:10E3B0008093C000EACF08958DE08093C6008091DD
:10E3C000C00086FFFCCF8091C00080648093C000B5
:10E3D0008AE08093C6008091C00086FFFCCF8091C8
:10E3E000C00080648093C00008950F94C2F10F9420
:10E3F000DCF10895FC019081992359F09093C600B7
:10E400008091C00086FFFCCF8091C0008064809323
:10E41000C0003196992379F70895282F982F929567
:10E420009F70892F805D8A3308F0895F8093C600D2
:10E430008091C00086FFFCCF8091C00080648093F3
:10E44000C000822F8F70982F905D9A3308F0995FEB
:10E450009093C6008091C00086FFFCCF8091C000E1
:10E4600080648093C00008959C01FB01853691056E
:10E470001CF46330710594F0C90164E670E00F94F8
:10E480002EFE605D7F4F6093C6008091C00086FFC6
:10E49000FCCF8091C00080648093C0002B30310598
:10E4A00014F43297B4F0C90164E670E00F942EFEC4
:10E4B0006AE070E00F942EFE605D7F4F6093C600AF
:10E4C0008091C00086FFFCCF8091C0008064809363
:10E4D000C000C9016AE070E00F942EFEC0968093E0
:10E4E000C6008091C00086FFFCCF8091C000806490
:10E4F0008093C00008951F93182F8EE692EE60E07F
:10E500000F94C2F11093C6008091C00086FFFCCF2B
:10E510008091C00080648093C0000F94DCF11F9153
:10E5200008952F923F924F925F926F927F928F92B7
:10E530009F92AF92BF92CF92DF92EF92FF920F9392
:10E540001F93DF93CF93CDB7DEB762970FB6F894E2
:10E55000DEBF0FBECDBF382E622ECA01DB015C01CB
:10E560006D01772420E2222E2E010894411C511CBB
:10E570008BC081E0A81680E0B80681E0C80680E084
:10E58000D80628F0C601AA27BB270F940DF2BB2797
:10E59000AD2D9C2D8B2D0F940DF28A2D0F940DF225
:10E5A0002092C6008091C00086FFFCCF8091C00001
:10E5B00080648093C0009DE29093C6008091C0006B
:10E5C00086FFFCCF8091C00080648093C0002092C1
:10E5D000C6008091C00086FFFCCF8091C00080649F
:10E5E0008093C00019828601750188249924A1E0D6
:10E5F0003A1651F03A1620F0B2E03B1661F409C029
:10E600000BBFF701779007C0C7010F9477FE782EF4
:10E6100002C0F7017080872D0F940DF22092C60082
:10E620008091C00086FFFCCF8091C0008064809301
:10E63000C000872D8052F401EF70F0708F3520F408
:10E64000E40DF51D708204C0E40DF51D8EE280839B
:10E650000894E11CF11C011D111D0894811C911CE2
:10E6600090E18916910409F0C2CF80E190E0A0E02A
:10E67000B0E0A80EB91ECA1EDB1E198AC2010F9493
:10E68000FAF10F94DCF16A94662009F072CF629679
:10E690000FB6F894DEBF0FBECDBFCF91DF911F91B3
:10E6A0000F91FF90EF90DF90CF90BF90AF909F9031
:10E6B0008F907F906F905F904F903F902F90089534
:10E6C0002F923F924F925F926F927F928F929F9282
:10E6D000AF92BF92CF92DF92EF92FF920F931F9370
:10E6E000DF93CF93CDB7DEB7CD53D1400FB6F894BB
:10E6F000DEBF0FBECDBF01E20EBF0FEF0DBF94B75F
:10E70000F894A89514BE80916000886180936000A1
:10E7100010926000789493FF05C0E0910002F091A0
:10E7200001021995279A2F9A8091C00082608093E8
:10E73000C00080E18093C40088E18093C1000000A4
:10E74000EE24FF24870144E0A42EB12CCC24DD2448
:10E7500024C0C5010197F1F70894E11CF11C011DCB
:10E76000111D21E2E2162EE4F20620E0020720E06D
:10E77000120718F031E0C32ED12CC801B70127ECE5
:10E780003BE140E050E00F9441FE611571058105C9
:10E79000910519F485B1805885B98091C00087FD35
:10E7A00003C0C114D104A9F2A6014F5F5F4FC25E3E
:10E7B000DE4F59834883CE51D140C25EDE4F8881FF
:10E7C0009981CE51D140019711F00D9410FEC05D9A
:10E7D000DE4F19821882C053D14060E0C15DDE4F28
:10E7E0001882CF52D14088249924C35DDE4F19820C
:10E7F0001882CD52D140C05EDE4F188219821A8233
:10E800001B82C052D140CE5CDE4F188219821A8220
:10E810001B82C253D140EE24FF2487010BBFF701B6
:10E8200007911691C45CDE4F19830883CC53D14005
:10E830000D940BFEC25EDE4F28813981CE51D1404E
:10E840002130310509F52091C600C25EDE4F1982E4
:10E850001882CE51D14022C02F5F3F4F4F4F5F4FA4
:10E86000213082E138078AE7480780E0580780F0C6
:10E87000C45CDE4FE881F981CC53D140EF5FFF4F9C
:10E8800019F0EE27FF27099420E030E040E050E047
:10E890008091C00087FFE0CF2091C600C35DDE4FAE
:10E8A00048815981CD52D1404F5F5F4FC35DDE4FEC
:10E8B00059834883CD52D140213209F063C64A3092
:10E8C000510508F05FC60894811C911C53E0851621
:10E8D000910409F059C600E010E018C081E280936D
:10E8E000C6008091C00086FFFCCF8091C00080648C
:10E8F0008093C0002F5F3F4F2931310579F70F9486
:10E90000DCF10F5F1F4F0530110519F020E030E0FA
:10E91000E5CF10920A0210920B0210920C02109294
:10E920000D02109206021092070210920802109235
:10E930000902109202021092030210920402109235
:10E9400005028FEE90EE60E00F94F5F180E191EE1C
:10E9500060E00F94C2F18091C00087FFFCCF9091DE
:10E96000C600903608F09F759032B8F09093C600BC
:10E970008091C00086FFFCCF8091C00080648093AE
:10E98000C000A0E2A093C6008091C00086FFFCCF2B
:10E990008091C00080648093C000983409F4D7C18E
:10E9A0009934B8F4923409F459C1933458F490333B
:10E9B00019F1903308F4E3C59F33A1F1903409F0C5
:10E9C000DEC5BDC0953409F470C1963409F0D7C5D1
:10E9D00098C1923509F42BC2933538F49C3409F46C
:10E9E000F5C1913509F0CBC518C2963509F445C279
:10E9F000993509F0C4C567C483E792EE62E00F94CD
:10EA0000F5F110920602109207021092080210927D
:10EA1000090210920A0210920B0210920C0210923C
:10EA20000D0213C18FE792EE62E00F94F5F18FEEC5
:10EA300090EE60E00F94F5F181E291EE60E00F94CA
:10EA4000C2F187EB91EE60E00F94F5F180E391EE77
:10EA500060E00F94C2F184EE90EE60E00F94F5F167
:10EA60008FE391EE60E00F94C2F186E090E061E008
:10EA700070E00F9434F20F94DCF18DE591EE60E0DC
:10EA80000F94C2F189EC91EE60E00F94F5F18EE401
:10EA900091EE60E00F94C2F183EC91EE60E00F9490
:10EAA000F5F18CE691EE60E00F94C2F18EE10F94E7
:10EAB0000DF288E90F940DF281E00F940DF20F949E
:10EAC000DCF18BE791EE60E00F94C2F119E0E0E039
:10EAD000F0E010935700E4918E2F0F940DF20F94F5
:10EAE000DCF18AE891EE60E00F94C2F1E3E0F0E03F
:10EAF00010935700E4918E2F0F940DF20F94DCF1D8
:10EB000089E991EE60E00F94C2F1E2E0F0E0109349
:10EB10005700E4918E2F0F940DF20F94DCF188EAE8
:10EB200091EE60E00F94C2F1E1E0F0E01093570045
:10EB30001491812F0F940DF20F94DCF107CF8BE825
:10EB400092EE62E00F94F5F18BE492EE60E00F94A8
:10EB5000F5F10F94DCF100E010E019C0C8016F2D51
:10EB60000F947FFEFF2031F489E492EE60E00F9471
:10EB7000C2F10BC0F092C6008091C00086FFFCCFAE
:10EB80008091C00080648093C0000F5F1F4FC80158
:10EB900081519F41A0E0B0E0ABBFFC01F790BAE229
:10EBA000FB1621F0E2E000301E07C1F60F94DCF105
:10EBB0000F94DCF187E592EE60E00F94F5F10F948D
:10EBC000DCF1CC24DD2400E010E01EC0C8010F946D
:10EBD00077FEF82E882331F489E492EE60E00F94FA
:10EBE000C2F10BC08093C6008091C00086FFFCCFAD
:10EBF0008091C00080648093C000FE1419F00894D6
:10EC0000C11CD11C0F5F1F4FC80181519F41A0E063
:10EC1000B0E0ABBFFC01E790FAE2EF1621F022E092
:10EC20000030120799F60F94DCF10F94DCF182E6C4
:10EC300092EE60E00F94C2F1C60161E070E00F94C3
:10EC400034F20F94DCF10F94DCF110920202109276
:10EC50000302109204021092050278CE89E992EE26
:10EC600062E00F94F5F1279A2F9A16C02F9880E052
:10EC700090E0E0EDF7E03197F1F7019684369105E9
:10EC8000C1F72F9A80E090E0E0EDF7E03197F1F7DF
:10EC9000019684369105C1F78091C00087FFE6CFC9
:10ECA0008091C00087FFFCCF64C485EA92EE62E0E9
:10ECB0000F94F5F140910202509103026091040219
:10ECC0007091050281E020E10F9491F2809102029F
:10ECD00090910302A0910402B091050280509F4FD1
:10ECE000AF4FBF4F8093020290930302A0930402A0
:10ECF000B093050280509041A040B04008F426CE69
:10ED0000A4CF83EB92EE62E00F94F5F140910602FE
:10ED100050910702609108027091090280E020E1A1
:10ED20000F9491F28091060290910702A09108023F
:10ED3000B091090280509F4FAF4FBF4F80930602A2
:10ED400090930702A0930802B0930902FFCD80ECD4
:10ED500092EE62E00F94F5F183E792EE60E00F949B
:10ED6000F5F18FE792EE60E00F94F5F18BE892EE0B
:10ED700060E00F94F5F189E992EE60E00F94F5F10F
:10ED800085EA92EE60E00F94F5F183EB92EE60E09D
:10ED90000F94F5F180EC92EE60E00F94F5F187ECC2
:10EDA00092EE60E00F94F5F188ED92EE60E00F9442
:10EDB000F5F18FED92EE60E00F94F5F18AEE92EEB0
:10EDC00060E00F94F5F183E093EEBDCD87EC92EE19
:10EDD00062E00F94F5F181E40F947BF282E40F94EA
:10EDE0007BF283E40F947BF284E40F947BF285E45E
:10EDF0000F947BF286E40F947BF287E40F947BF20E
:10EE000088E40F947BF28AE40F947BF28BE40F94F6
:10EE10007BF28CE40F947BF299CD88ED92EE62E068
:10EE20000F94F5F1772473948824992409C48FED05
:10EE300092EE62E00F94F5F140910A0250910B02BC
:10EE400060910C0270910D0282E020E10F9491F22A
:10EE500080910A0290910B02A0910C02B0910D02D8
:10EE600080509F4FAF4FBF4F80930A0290930B0289
:10EE7000A0930C02B0930D0269CD8AEE92EE62E08F
:10EE80000F94F5F184EE90EE60E00F94F5F18FECC5
:10EE900091EE60E00F94F5F1662477244301CC5D98
:10EEA000DE4F19821882C452D140D401C301B695F5
:10EEB000A79597958795CA5DDE4F88839983AA8326
:10EEC000BB83C652D140CC5DDE4FA881B981C4520C
:10EED000D1401196CC5DDE4FB983A883C452D14096
:10EEE000CD0162E070E00F9434F2B0E2B093C6005E
:10EEF0008091C00086FFFCCF8091C0008064809329
:10EF0000C000EDE2E093C6008091C00086FFFCCF18
:10EF10008091C00080648093C000F0E2F093C6004E
:10EF20008091C00086FFFCCF8091C00080648093F8
:10EF3000C000CA5DDE4FE880F9800A811B81C6529D
:10EF4000D140BB27A12F902F8F2D0F940DF2CA5DBA
:10EF5000DE4F8881C652D1400F940DF2B0E2FB2EF5
:10EF6000F092C6008091C00086FFFCCF8091C00067
:10EF700080648093C0000DE30093C6008091C000C0
:10EF800086FFFCCF8091C00080648093C00010E2B7
:10EF90001093C6008091C00086FFFCCF8091C00016
:10EFA00080648093C0008BBEF3012791C65DDE4F65
:10EFB0002883CA52D140A22EBB24CC24DD2408943D
:10EFC000611C711C811C911C8BBEF3018791282E42
:10EFD0003324442455240894611C711C811C911C09
:10EFE0008BBEF3013791C55DDE4F3883CB52D140E4
:10EFF0000894611C711C811C911C8BBEF30147910C
:10F00000C45DDE4F4883CC52D140ADEFEA2EAFEF66
:10F01000FA2EAFEF0A2FAFEF1A2F6E0C7F1C801E57
:10F02000911E142D032DF22CEE24EA0CFB1C0C1D5A
:10F030001D1D0F940DF220E22093C6008091C000A8
:10F0400086FFFCCF8091C00080648093C000C65DC5
:10F05000DE4F8881CA52D1400F940DF230E23093D6
:10F06000C6008091C00086FFFCCF8091C000806404
:10F070008093C000C45DDE4F8881CC52D1400F9494
:10F080000DF240E24093C6008091C00086FFFCCFA5
:10F090008091C00080648093C000C55DDE4F888190
:10F0A000CB52D1400F940DF250E25093C6008091A4
:10F0B000C00086FFFCCF8091C00080648093C000B8
:10F0C0008FEFE8168FEFF80680E0080780E018075A
:10F0D00031F484E092EE60E00F94C2F1DFC0D80119
:10F0E000C7018070907CA070B0708050904CA040A0
:10F0F000B040D1F52FEF3FE340E050E0E222F322B1
:10F1000004231523CA5DDE4FA880B980CA80DB8046
:10F11000C652D140AE0CBF1CC01ED11EAA0CBB1CD7
:10F12000CC1CDD1C8EE092EE60E00F94C2F1BB2798
:10F13000A12F902F8F2D0F940DF28E2D0F940DF285
:10F1400030E23093C6008091C00086FFFCCF8091F2
:10F15000C00080648093C0004EE34093C60080915D
:10F16000C00086FFFCCF87C08EE09EEFA0E0B0E03D
:10F17000E822F9220A231B239CE0E91694E9F90608
:10F1800090E0090790E0190709F088C0C45DDE4FE0
:10F19000A881CC52D140EA2EFF2400E010E0102FCD
:10F1A0000F2DFE2CEE24C55DDE4FB881CB52D14031
:10F1B000EB0EF11C011D111DD601C501817090706F
:10F1C000A070B070DC0199278827E80EF91E0A1F8D
:10F1D0001B1F20EF30E040E050E0A222B322C42207
:10F1E000D52241E1AA0CBB1CCC1CDD1C4A95D1F7F1
:10F1F000EA0CFB1C0C1D1D1D81E090E0A0E0B0E0BE
:10F20000282239224A225B2235E1220C331C441C7D
:10F21000551C3A95D1F7E20CF31C041D151D57013E
:10F220006801AA0CBB1CCC1CDD1C85E192EE60E0E1
:10F230000F94C2F1C801AA27BB270F940DF2BB2778
:10F24000A12F902F8F2D0F940DF28E2D0F940DF274
:10F2500090E29093C6008091C00086FFFCCF809121
:10F26000C00080648093C000AEE3A093C60080918C
:10F27000C00086FFFCCF8091C00080648093C000F6
:10F28000C601AA27BB270F940DF2BB27AD2D9C2DDD
:10F290008B2D0F940DF28A2D0F940DF20F94DCF14B
:10F2A000CC5DDE4FE881F981C452D140F99709F471
:10F2B0004DCBF4E0EF2EF12C012D112D6E0C7F1CA7
:10F2C000801E911EF2CD83E093EE62E00F94F5F183
:10F2D0008AE192EE60E00F94C2F18091C00087FF56
:10F2E000FCCF1091C6001F751093C6008091C0001E
:10F2F00086FFFCCF8091C00080648093C0000F9493
:10F30000DCF1812F81548A3108F036C1163409F4BA
:10F3100095C0173490F4133409F44EC0143430F40B
:10F320001134F1F0123409F01DC130C0143409F465
:10F3300059C0153409F016C16BC01A3409F4C4C0A1
:10F340001B3438F4173409F48FC0183409F00AC19B
:10F35000A1C01B3409F4D2C01C3409F003C1E8C0B9
:10F360008FEF81B90DC082B1809582B980E090E0C5
:10F37000E0EDF7E03197F1F70196883C9105C1F790
:10F380008091C00087FFEFCF12B8EFC08FEF84B934
:10F390000DC085B1809585B980E090E0E0EDF7E0A3
:10F3A0003197F1F70196883C9105C1F78091C00033
:10F3B00087FFEFCF15B8D9C08FEF87B90DC088B1DF
:10F3C000809588B980E090E0E0EDF7E03197F1F7C3
:10F3D0000196883C9105C1F78091C00087FFEFCF6F
:10F3E00018B8C3C08FEF8AB90DC08BB180958BB9A7
:10F3F00080E090E0E0EDF7E03197F1F70196883C8E
:10F400009105C1F78091C00087FFEFCF1BB8ADC059
:10F410008FEF8DB90DC08EB180958EB980E090E0F0
:10F42000E0EDF7E03197F1F70196883C9105C1F7DF
:10F430008091C00087FFEFCF1EB897C08FEF80BBD1
:10F440000DC081B3809581BB80E090E0E0EDF7E0F6
:10F450003197F1F70196883C9105C1F78091C00082
:10F4600087FFEFCF11BA81C08FEF83BB0DC084B38C
:10F47000809584BB80E090E0E0EDF7E03197F1F714
:10F480000196883C9105C1F78091C00087FFEFCFBE
:10F4900014BA6BC08FEF809301010FC080910201FD
:10F4A00080958093020180E090E0E0EDF7E03197F5
:10F4B000F1F70196883C9105C1F78091C00087FF64
:10F4C000EDCF1092020151C08FEF809304010FC065
:10F4D0008091050180958093050180E090E0E0ED4A
:10F4E000F7E03197F1F70196883C9105C1F78091DB
:10F4F000C00087FFEDCF1092050137C08FEF8093DA
:10F5000007010FC08091080180958093080180E079
:10F5100090E0E0EDF7E03197F1F70196883C910536
:10F52000C1F78091C00087FFEDCF109208011DC088
:10F530008FEF80930A010FC080910B01809580931B
:10F540000B0180E090E0E0EDF7E03197F1F70196F4
:10F55000883C9105C1F78091C00087FFEDCF1092E4
:10F560000B0103C085E292EEEEC98091C00087FFD7
:10F57000FCCF8091C600EAC988E392EEE4C98CE131
:10F5800091EEE1C988249924933011F1943028F444
:10F59000913089F09230B8F408C0953061F195301F
:10F5A000F0F0963009F048C043C02B3109F042C951
:10F5B00091E06BE13FC96227C15DDE4F2883CF52E6
:10F5C000D14092E037C9B22FA0E0622793E032C960
:10F5D000822F90E0A82BB92B622794E02BC92E3004
:10F5E00009F039C3622795E0C05DDE4F19821882A9
:10F5F000C053D1401FC9E1E0F0E0EC0FFD1FC05D3A
:10F60000DE4F08811981C053D140E00FF11F2083E4
:10F610000F5F1F4FC05DDE4F19830883C053D14079
:10F6200062270A171B0709F005C9D80196E002C92D
:10F63000261709F010C303C0973009F0FBC87724E0
:10F640009981933109F412C19431C8F4963009F4C8
:10F65000D8C0973050F4923009F406C1933009F4C1
:10F660006DC0913009F059C253C0913109F477C08F
:10F67000923108F0BBC0903109F04FC2F5C098310B
:10F6800009F487C0993150F4953109F4EFC09531F0
:10F6900008F4C6C1963109F040C2C2C19A3109F4DA
:10F6A0006CC09A3108F491C09B3109F45BC09D3164
:10F6B00009F033C29D81903359F48F81882311F46E
:10F6C0009EE11CC0813011F091E018C098E916C08D
:10F6D000892F807591F0903539F4E0E0F0E089E011
:10F6E0008093570094910AC0983539F4E3E0F0E034
:10F6F00089E080935700949101C090E01A821B82A8
:10F700008D818C831D829E831F8227E030E009C299
:10F710001A8288E08B8381E48C8386E58D8382E581
:10F720008E8389E48F8383E5888780E589878FE5E9
:10F730008A8782E38B872BE030E0F3C18A818139AD
:10F7400041F0823941F0803911F48FE005C080E04A
:10F7500003C082E001C08AE01A828B8344C0772410
:10F76000739482C08D81882311F48EE12CC0813086
:10F7700011F081E028C088E926C01A82E1E0F0E0BB
:10F7800089E08093570084918B831C8224E030E0D1
:10F79000C8C18B81803589F48C81883039F4E2E0EE
:10F7A000F0E089E08093570084910DC0E0E0F0E044
:10F7B00089E080935700849106C0E3E0F0E089E09F
:10F7C0008093570084911A82DFCF8D81836C99E0FA
:10F7D000E1E0F0E0082E90935700E89507B600FCB2
:10F7E000FDCF1A821B8223E030E09BC180EC8A832C
:10F7F000CE5CDE4F188219821A821B82C253D1401E
:10F800008EC18A8190E0A0E0B0E0582F44273327D2
:10F8100022278B8190E0A0E0B0E0DC0199278827C7
:10F82000282B392B4A2B5B2B8D8190E0A0E0B0E098
:10F83000282B392B4A2B5B2B8C8190E0A0E0B0E089
:10F84000BA2FA92F982F8827282B392B4A2B5B2BCF
:10F85000220F331F441F551FC05EDE4F288339839C
:10F860004A835B83C052D1401A8259C13A81C95C34
:10F87000DE4F3883C753D140CA5CDE4F1882C6536F
:10F88000D1408B81C82EDD24CA5CDE4F488159816E
:10F89000C653D140C42AD52A933109F082C0CE5C28
:10F8A000DE4F88819981AA81BB81C253D1408050AB
:10F8B000904CA340B04030F583E0CE5CDE4FE88052
:10F8C000F9800A811B81C253D140F70100935B008C
:10F8D00080935700E89507B600FCFDCFCE5CDE4F65
:10F8E000088119812A813B81C253D14000501F4FAA
:10F8F0002F4F3F4FCE5CDE4F088319832A833B8313
:10F90000C253D140C05EDE4F488159816A817B81FC
:10F91000C052D140DE011B9631E08C9111962C91A2
:10F9200011971296C75CDE4F2883C953D140C85C3B
:10F93000DE4F1882C853D14090E0C85CDE4FE881AA
:10F94000F981C853D1408E2B9F2B0C01FA01609393
:10F950005B0030935700E89511244E5F5F4F6F4F67
:10F960007F4F0EEFE02E0FEFF02ECE0CDF1CC114F8
:10F97000D10499F685E0C05EDE4F088119812A81A5
:10F980003B81C052D140F80120935B008093570027
:10F99000E89507B600FCFDCF81E180935700E8951C
:10F9A00035C0C05EDE4F88819981AA81BB81C0527B
:10F9B000D140B695A795979587957C018601ABE0D8
:10F9C000AA2EB12CAC0EBD1E0BC0D5016D915D01F0
:10F9D000C7010F947FFE0894E11CF11C01501040F8
:10F9E0000115110591F7A60160E070E0440F551F65
:10F9F000661F771FC05EDE4FE880F9800A811B8199
:10FA0000C052D1404E0D5F1D601F711F1A82C05E33
:10FA1000DE4F488359836A837B83C052D1407FC0C5
:10FA2000FA80C55CDE4FF882CB53D140C65CDE4F16
:10FA30001882CA53D1408B81C82EDD24C65CDE4FAC
:10FA400008811981CA53D140C02AD12A1A828981DA
:10FA5000BE016D5F7F4F843121F59601C05EDE4FA0
:10FA6000E880F9800A811B81C052D1400BBFF701A9
:10FA700087919691DB018C9311969C936E5F7F4FDB
:10FA8000D801C7010296A11DB11DC05EDE4F88835B
:10FA90009983AA83BB83C052D14022503040F1F6F3
:10FAA00036C0C05EDE4F288139814A815B81C052F9
:10FAB000D1400894C108D108760100E010E0089414
:10FAC000C11CD11C0894E11CF11C011D111DE20E8A
:10FAD000F31E041F151F21BDBB27A52F942F832FB5
:10FAE00082BD2F5F3F4F4F4F5F4FF89A80B5DB01CC
:10FAF0008D93BD012E153F054007510761F7C05E8C
:10FB0000DE4F288339834A835B83C052D1409601FC
:10FB10002D5F3F4FFB01108204C080EC8A8322E0FE
:10FB200030E08BE18093C6008091C00086FFFCCF5F
:10FB30008091C00080648093C000C15DDE4FF88179
:10FB4000CF52D140F093C6008091C00086FFFCCF19
:10FB50008091C00080648093C000432F3093C60022
:10FB60008091C00086FFFCCF8091C00080648093AC
:10FB7000C000922F2093C6008091C00086FFFCCF6A
:10FB80008091C00080648093C0008EE08093C600A6
:10FB90008091C00086FFFCCF8091C000806480937C
:10FBA000C00065E1C15DDE4FE880CF52D1406E25D7
:10FBB00069276427FE01319610C090819093C6009A
:10FBC0008091C00086FFFCCF31968091C000806498
:10FBD0008093C0006927215030402115310569F715
:10FBE0006093C6008091C00086FFFCCF8091C0006A
:10FBF00080648093C00085B1805885B9772081F4F6
:10FC0000C15DDE4F0881CF52D1400F5FC15DDE4F35
:10FC10000883CF52D14090E0A0E0B0E00D941AF4F8
:10FC200027982F9880E090E020ED37E0F901319798
:10FC3000F1F7019684369105C9F700008091C00064
:10FC40008D7F8093C00081E180935700E895EE2777
:10FC5000FF270994FFCF90E00D941AF497FB092E2B
:10FC600007260AD077FD04D02ED006D000201AF443
:10FC7000709561957F4F0895F6F7909581959F4F08
:10FC80000895A1E21A2EAA1BBB1BFD010DC0AA1FDD
:10FC9000BB1FEE1FFF1FA217B307E407F50720F0F5
:10FCA000A21BB30BE40BF50B661F771F881F991F70
:10FCB0001A9469F760957095809590959B01AC01B9
:10FCC000BD01CF010895AA1BBB1B51E107C0AA1FAC
:10FCD000BB1FA617B70710F0A61BB70B881F991FED
:10FCE0005A95A9F780959095BC01CD010895F99991
:10FCF000FECF92BD81BDF89A992780B50895262F31
:10FD0000F999FECF1FBA92BD81BD20BD0FB6F89400
:0EFD1000FA9AF99A0FBE01960895F894FFCF63
:040000033000E000E9
:00000001FF